:020000040800F2
:10000000000002205D9000084D0800085308000819
:10001000590800085F080008650800080000000093
:100020000000000000000000000000006B08000855
:1000300079080008000000008708000895080008FB
:10004000AD900008AD900008AD900008AD9000089C
:10005000AD900008AD900008AD900008AD9000088C
:10006000AD900008AD900008AD900008AD9000087C
:10007000AD900008AD900008AD900008AD9000086C
:10008000AD900008AD900008AD900008AD9000085C
:10009000AD900008AD900008AD900008AD9000084C
:1000A000AD900008AD900008AD900008AD9000083C
:1000B000AD900008AD900008AD900008AD9000082C
:1000C000AD900008AD900008AD900008AD9000081C
:1000D000AD900008AD900008AD900008AD9000080C
:1000E000AD900008AD900008AD900008AD900008FC
:1000F000AD900008AD900008AD900008AD900008EC
:10010000AD900008AD900008AD900008AD900008DB
:10011000AD900008AD900008AD900008AD900008CB
:10012000AD900008AD900008AD900008AD900008BB
:10013000AD9000080000000000000000AD90000835
:10014000AD900008AD900008AD900008AD9000089B
:10015000AD900008AD900008AD900008AD9000088B
:10016000AD900008AD900008AD900008AD9000087B
:10017000AD900008AD900008AD90000800000000B0
:1001800000000000AD90000800000000000000002A
:10019000AD9000080000000000000000AD900008D5
:1001A000000000000000000000000000AD9000080A
:1001B000AD900008AD900008AD900008AD9000082B
:0401C000AD900008F6
:1002000010B5054C237833B9044B13B10448AFF350
:1002100000800123237010BDB809002000000000F9
:1002200010F2000808B5034B1BB103490348AFF3B4
:10023000008008BD00000000BC09002010F200088A
:1002400080B582B000AF00F0F3FC00F053F800F08E
:100250001DF900F0D1F800F0BBF81F4809F006F8CE
:1002600000F088F91D4B1B69002B10D01C4808F0CA
:10027000FDFF1A4B1B68002B01D11A4B00E01A4BF3
:100280007B60164B5B690133144A536107E0134BE3
:100290001B68002B01D1144B00E0124B7B60786887
:1002A00000F09AF90346002B0AD1104808F0DEFF4F
:1002B0000A4B5B68002B01D10B4B00E0094B7B60C4
:1002C00079680B4808F070FF642000F09FFD7868A3
:1002D00000F0A6F9FEE700BF28F20008380A002067
:1002E00044F20008000004080080000854F20008EE
:1002F00070F2000880B594B000AF07F11C033422FF
:100300000021184608F0FEFE07F1080300221A60DB
:100310005A609A60DA601A6100237B602A4B1B6C7A
:10032000294A43F080531364274B1B6C03F080531E
:100330007B607B6800233B60244B1B6823F44043B5
:10034000224A43F480431360204B1B6803F440436C
:100350003B603B680223FB610123BB621023FB620D
:1003600002237B630023BB631023FB634FF4A8735A
:100370003B6404237B640223BB640223FB6407F118
:100380001C03184602F0B4FE0346002B01D000F017
:10039000EBF80F23BB600223FB6000233B614FF4AB
:1003A00080537B610023BB6107F1080302211846DB
:1003B00001F0B8F80346002B01D000F0D5F800BFDB
:1003C0005037BD4680BD00BF00380240007000407D
:1003D00080B500AF064B074A1A60054807F0FFFDDD
:1003E0000346002B01D000F0BFF800BF80BD00BF66
:1003F000D40900200030024080B500AF114B124AF2
:100400001A60104B4FF4E1325A600E4B00229A6092
:100410000C4B0022DA600B4B00221A61094B0C22B4
:100420005A61084B00229A61064B0022DA610548A6
:1004300003F0B8FC0346002B01D000F095F800BF94
:1004400080BD00BFDC0900200044004080B500AF43
:100450000C4B0D4A1A600B4B00225A60094B40228C
:100460009A60084B4022DA60064B00221A61054868
:1004700007F04EFD0346002B01D000F075F800BFD9
:1004800080BD00BF240A0020002C004080B58AB047
:1004900000AF07F1140300221A605A609A60DA6014
:1004A0001A6100233B612D4B1B6B2C4A43F0040364
:1004B00013632A4B1B6B03F004033B613B6900236E
:1004C000FB60264B1B6B254A43F080031363234BD1
:1004D0001B6B03F08003FB60FB680023BB601F4BBA
:1004E0001B6B1E4A43F0010313631C4B1B6B03F091
:1004F0000103BB60BB6800237B60184B1B6B174A72
:1005000043F002031363154B1B6B03F002037B6084
:100510007B6800222021124803F0C4FB4FF40053F3
:100520007B614FF40413BB610023FB6107F11403EB
:1005300019460C4803F016F920237B610123BB61A7
:100540000023FB6100233B6207F1140319460448B2
:1005500003F008F900BF2837BD4680BD00380240CF
:10056000000002400008024080B400AF72B600BF35
:10057000FEE700BFB0B400AF144B9B69144A93422E
:100580000AD1124B134A14461D460FCD0FC495E8ED
:10059000070084E8070014E00E4B00221A600D4BA0
:1005A00000225A600B4B00229A600A4B0022DA604C
:1005B000084B00221A61074B00225A61054B044A7E
:1005C0009A6100BFBD46B0BC704700BF00800708FD
:1005D00007B007B0380A002080B485B000AF78605B
:1005E0007B681B68FB607B6804331B68BB60FA6830
:1005F0000A4B1340B3F1005F01D0002307E0BB6852
:1006000003F00063002B01D1002300E00123184612
:100610001437BD465DF8047B704700BF0000FE2F15
:1006200080B586B000AF78607B681B687B617B68B3
:1006300004331B683B6172B600BF00F01BFB0B4B21
:1006400000221A60094B00225A60084B00229A606F
:10065000074A7B6893607B69BB60BB6883F308884B
:1006600000BF3B69FB60FB689847FEE710E000E0D5
:1006700000ED00E080B582B000AF00237B60104B3E
:100680005B6C0F4A43F4804353640D4B5B6C03F483
:1006900080437B607B6800233B60094B1B6C084AEE
:1006A00043F080531364064B1B6C03F080533B6094
:1006B0003B68072007F0ACFA00BF0837BD4680BD95
:1006C0000038024080B485B000AF78607B681B685A
:1006D0000B4A93420DD10023FB600A4B1B6B094A66
:1006E00043F480531363074B1B6B03F48053FB608D
:1006F000FB6800BF1437BD465DF8047B704700BF40
:10070000003002400038024080B483B000AF78600F
:100710007B681B68074A934205D1074B1B6B064A4F
:1007200023F48053136300BF0C37BD465DF8047B90
:10073000704700BF003002400038024080B58AB0E8
:1007400000AF786007F1140300221A605A609A60C3
:10075000DA601A617B681B68194A93422BD1002327
:100760003B61184B1B6C174A43F400331364154B61
:100770001B6C03F400333B613B690023FB60114BAE
:100780001B6B104A43F0010313630E4B1B6B03F00A
:100790000103FB60FB680C237B610223BB61002328
:1007A000FB6103233B6207237B6207F114031946B5
:1007B000054802F0D7FF00BF2837BD4680BD00BF07
:1007C00000440040003802400000024080B582B082
:1007D00000AF78607B681B68084A934209D1084BD8
:1007E0001B6C074A23F4003313640C21054803F003
:1007F0004DF900BF0837BD4680BD00BF0044004032
:10080000003802400000024080B485B000AF78603C
:100810007B681B680B4A93420DD10023FB600A4B97
:100820001B6C094A43F400631364074B1B6C03F40D
:100830000063FB60FB6800BF1437BD465DF8047BB6
:10084000704700BF002C00400038024080B400AF69
:10085000FEE780B400AFFEE780B400AFFEE780B4EF
:1008600000AFFEE780B400AFFEE780B400AF00BF8A
:10087000BD465DF8047B704780B400AF00BFBD4645
:100880005DF8047B704780B400AF00BFBD465DF8E3
:10089000047B704780B500AF00F058FA00BF80BD00
:1008A00080B400AF00BFBD465DF8047B704780B4E4
:1008B00000AF01231846BD465DF8047B704780B544
:1008C00082B000AF7860396008F0F2FB0346162270
:1008D0001A604FF0FF3318460837BD4680BD80B51B
:1008E00082B000AF78604FF0FF317868FFF7E7FF24
:1008F000FEE780B586B000AFF860B9607A6000238B
:100900007B610AE0AFF300800146BB685A1CBA6005
:10091000CAB21A707B6901337B617A697B689A423B
:10092000F0DB7B6818461837BD4680BD80B586B0C1
:1009300000AFF860B9607A6000237B6109E0BB68B2
:100940005A1CBA601B781846AFF300807B690133EC
:100950007B617A697B689A42F1DB7B6818461837BD
:10096000BD4680BD80B483B000AF78604FF0FF33E8
:1009700018460C37BD465DF8047B704780B483B0E1
:1009800000AF786039603B684FF400525A60002332
:1009900018460C37BD465DF8047B704780B483B0C1
:1009A00000AF7860012318460C37BD465DF8047B24
:1009B000704780B485B000AFF860B9607A600023FA
:1009C00018461437BD465DF8047B70470EB480B4FA
:1009D00082B000AF78604FF0FF3318460837BD464D
:1009E0005DF8047B03B0704780B582B000AF7860DB
:1009F00008F05EFB03460A221A604FF0FF331846E8
:100A00000837BD4680BD80B582B000AF786008F081
:100A10004FFB034602221A604FF0FF331846083797
:100A2000BD4680BD80B483B000AF78604FF0FF3327
:100A300018460C37BD465DF8047B704780B483B020
:100A400000AF786039603B684FF400525A60002371
:100A500018460C37BD465DF8047B704780B582B000
:100A600000AF7860396008F023FB03461F221A604C
:100A70004FF0FF3318460837BD4680BD80B500AF44
:100A800008F016FB03460B221A604FF0FF3318469E
:100A900080BD80B584B000AFF860B9607A6008F0BE
:100AA00007FB03460C221A604FF0FF33184610373D
:100AB000BD4680BD80B586B000AF7860144A154B46
:100AC000D31A7B617B693B61134B1B68002B02D1FE
:100AD000114B124A1A60104B1A687B6813443A692A
:100AE0009A4207D208F0E4FA03460C221A604FF04B
:100AF000FF3309E0084B1B68FB60074B1A687B68F3
:100B00001344054A1360FB6818461837BD4680BD7C
:100B10000000022000040000540A0020A80A00205F
:100B200080B400AF064BD3F88830054A43F4700315
:100B3000C2F8883000BFBD465DF8047B704700BF37
:100B400000ED00E080B487B000AF344B9B6803F049
:100B50000C033B613B69082B11D03B69082B44D83F
:100B60003B69002B03D03B69042B04D03DE02C4BA8
:100B70002C4A1A603DE02A4B2B4A1A6039E0274B79
:100B80005B689B0D03F00103FB60244B5B6803F083
:100B90003F03BB60FB68002B0CD0234ABB68B2FB51
:100BA000F3F31E4A52689209C2F3080202FB03F3F0
:100BB0007B610BE01B4ABB68B2FBF3F3174A526838
:100BC0009209C2F3080202FB03F37B61134B5B68DB
:100BD0001B0C03F0030301335B007B607A697B68C5
:100BE000B2FBF3F30E4A136003E00D4B0D4A1A609B
:100BF00000BF0A4B9B681B0903F00F030B4AD35C31
:100C00003B61074B1A683B6922FA03F3044A1360FD
:100C100000BF1C37BD465DF8047B704700380240BA
:100C2000000000200024F40040787D0194F20008C8
:100C300080B500AF0E4B1B680D4A43F40073136080
:100C40000B4B1B680A4A43F480631360084B1B6814
:100C5000074A43F480731360032006F0D9FF002095
:100C600000F044F8FFF706FD0023184680BD00BFE2
:100C7000003C024080B500AF114B124A1A62104B83
:100C800000221A620E4B104A5A620D4B00225A6221
:100C90000B4B0E4A1A610A4B00221A61084B812243
:100CA0005A61074B00225A61054B03229A61044B9B
:100CB00000229A6100F013F80023184680BD00BF9F
:100CC00000380240FFC9FF3F3379C700FF106020A2
:100CD00080B400AF00BFBD465DF8047B704780B4B0
:100CE00000AF00BFBD465DF8047B704780B582B0A1
:100CF00000AF7860124B1A68124B1B7819464FF4FC
:100D00007A73B3FBF1F3B2FBF3F3184606F0C7FFB7
:100D10000346002B01D001230EE07B680F2B0AD87D
:100D2000002279684FF0FF3006F07DFF064A7B68AD
:100D30001360002300E0012318460837BD4680BD3C
:100D400000000020080000200400002080B400AF54
:100D5000064B1B781A46064B1B681344044A136063
:100D600000BFBD465DF8047B704700BF080000204F
:100D7000580A002080B400AF034B1B681846BD46DC
:100D80005DF8047B704700BF580A002080B400AFB4
:100D9000034B1B681846BD465DF8047B704700BFD7
:100DA0000400002080B584B000AF0346FB7100232F
:100DB000FB730E4B1B78FA799A4212D00B4B1B78BF
:100DC000BB730A4AFB791370094B1B681846FFF77F
:100DD0008DFF0346FB73FB7B002B02D0034ABB7BDA
:100DE0001370FB7B18461037BD4680BD08000020FD
:100DF0000400002080B400AF034B1B781846BD46AA
:100E00005DF8047B704700BF0800002080B584B007
:100E100000AF7860FFF7AEFFB8607B68FB60FB68EF
:100E2000B3F1FF3F05D00A4B1B781A46FB68134409
:100E3000FB6000BFFFF79EFF0246BB68D31AFA684B
:100E40009A42F7D800BF00BF1037BD4680BD00BF33
:100E50000800002080B400AF054B1B68044A23F053
:100E60000203136000BFBD465DF8047B704700BFFE
:100E700010E000E080B400AF054B1B68044A43F06B
:100E80000203136000BFBD465DF8047B704700BFDE
:100E900010E000E080B400AF024B1846BD465DF89C
:100EA000047B70470005080180B400AF034B1B684A
:100EB0001B0C1846BD465DF8047B7047002004E01B
:100EC00080B400AF044B1B68C3F30B031846BD4648
:100ED0005DF8047B704700BF002004E080B400AFE1
:100EE000054B5B68044A43F00103536000BFBD46F5
:100EF0005DF8047B704700BF002004E080B400AFC1
:100F0000054B5B68044A23F00103536000BFBD46F4
:100F10005DF8047B704700BF002004E080B400AFA0
:100F2000054B5B68044A43F00203536000BFBD46B3
:100F30005DF8047B704700BF002004E080B400AF80
:100F4000054B5B68044A23F00203536000BFBD46B3
:100F50005DF8047B704700BF002004E080B400AF60
:100F6000054B5B68044A43F00403536000BFBD4671
:100F70005DF8047B704700BF002004E080B400AF40
:100F8000054B5B68044A23F00403536000BFBD4671
:100F90005DF8047B704700BF002004E080B400AF20
:100FA000034B01221A6000BFBD465DF8047B704709
:100FB0000004274280B400AF034B00221A6000BF38
:100FC000BD465DF8047B70470004274280B400AF43
:100FD000034B1B681846BD465DF8047B704700BF95
:100FE000107AFF1F80B400AF034B1B681846BD4644
:100FF0005DF8047B704700BF147AFF1F80B400AF18
:10100000034B1B681846BD465DF8047B704700BF64
:10101000187AFF1F80B400AF00231846BD465DF864
:10102000047B704780B586B000AF78607B68002B8A
:1010300001D101236FE27B681B6803F00103002BE1
:1010400075D0884B9B6803F00C03042B0CD0854BA8
:101050009B6803F00C03082B12D1824B5B6803F4EE
:101060008003B3F5800F0BD17E4B1B6803F4003374
:10107000002B5BD07B685B68002B57D101234AE2D1
:101080007B685B68B3F5803F06D1764B1B68754A79
:1010900043F4803313601DE07B685B68B3F5A02FD9
:1010A0000CD1704B1B686F4A43F4802313606D4B67
:1010B0001B686C4A43F4803313600BE0694B1B6878
:1010C000684A23F480331360664B1B68654A23F437
:1010D000802313607B685B68002B13D0FFF74AFE08
:1010E000386108E0FFF746FE02463B69D31A642BDD
:1010F00001D903230FE25B4B1B6803F40033002B81
:10110000F0D014E0FFF736FE386108E0FFF732FE5A
:1011100002463B69D31A642B01D90323FBE1514BEF
:101120001B6803F40033002BF0D100E000BF7B68A4
:101130001B6803F00203002B63D04A4B9B6803F04B
:101140000C03002B0BD0474B9B6803F00C03082BC0
:101150001CD1444B5B6803F48003002B16D1414B38
:101160001B6803F00203002B05D07B68DB68012BB2
:1011700001D00123CFE13B4B1B6823F0F8027B68D1
:101180001B69DB00374913430B603AE07B68DB687F
:10119000002B20D0344B01221A60FFF7EBFD3861A1
:1011A00008E0FFF7E7FD02463B69D31A022B01D99D
:1011B0000323B0E12B4B1B6803F00203002BF0D09C
:1011C000284B1B6823F0F8027B681B69DB0025496C
:1011D00013430B6015E0244B00221A60FFF7CAFD91
:1011E000386108E0FFF7C6FD02463B69D31A022BBF
:1011F00001D903238FE11B4B1B6803F00203002B73
:10120000F0D17B681B6803F00803002B36D07B68A5
:101210005B69002B16D0154B01221A60FFF7AAFD5F
:10122000386108E0FFF7A6FD02463B69D31A022B9E
:1012300001D903236FE10B4B5B6F03F00203002B1B
:10124000F0D01BE0094B00221A60FFF793FD3861D4
:101250000EE0FFF78FFD02463B69D31A022B07D938
:10126000032358E10038024000004742800E474205
:10127000884B5B6F03F00203002BEAD17B681B688D
:1012800003F00403002B00F097800023FB75814BD3
:101290001B6C03F08053002B0FD10023BB607D4BF0
:1012A0001B6C7C4A43F0805313647A4B1B6C03F035
:1012B0008053BB60BB680123FB75774B1B6803F44D
:1012C0008073002B18D1744B1B68734A43F48073EE
:1012D0001360FFF74FFD386108E0FFF74BFD024652
:1012E0003B69D31A022B01D9032314E16A4B1B6813
:1012F00003F48073002BF0D07B689B68012B06D130
:10130000644B1B6F634A43F0010313671CE07B6867
:101310009B68052B0CD15F4B1B6F5E4A43F00403A7
:1013200013675C4B1B6F5B4A43F0010313670BE0D1
:10133000584B1B6F574A23F001031367554B1B6F24
:10134000544A23F0040313677B689B68002B15D075
:10135000FFF710FD38610AE0FFF70CFD02463B691C
:10136000D31A41F28832934201D90323D3E0494B87
:101370001B6F03F00203002BEED014E0FFF7FAFC22
:1013800038610AE0FFF7F6FC02463B69D31A41F2E6
:101390008832934201D90323BDE03E4B1B6F03F01B
:1013A0000203002BEED1FB7D012B05D1394B1B6CC9
:1013B000384A23F0805313647B689B69002B00F04C
:1013C000A980344B9B6803F00C03082B5CD07B682E
:1013D0009B69022B41D1314B00221A60FFF7CAFCF6
:1013E000386108E0FFF7C6FC02463B69D31A022BBE
:1013F00001D903238FE0274B1B6803F00073002BF8
:10140000F0D17B68DA697B681B6A1A437B685B6A88
:101410009B011A437B689B6A5B08013B1B041A43D0
:101420007B68DB6A1B061B4913434B601B4B012285
:101430001A60FFF79FFC386108E0FFF79BFC02464B
:101440003B69D31A022B01D9032364E0114B1B68BB
:1014500003F00073002BF0D05CE0104B00221A6008
:10146000FFF788FC386108E0FFF784FC02463B691F
:10147000D31A022B01D903234DE0064B1B6803F05E
:101480000073002BF0D145E07B689B69012B07D1ED
:10149000012340E0003802400070004060004742F5
:1014A0001F4B5B68FB607B689B69012B30D0FB683E
:1014B00003F480027B68DB699A4229D1FB6803F060
:1014C0003F027B681B6A9A4222D1FA6847F6C073D2
:1014D00013407A68526A9201934219D1FB6803F46F
:1014E00040327B689B6A5B08013B1B049A420FD128
:1014F000FB6803F070627B68DB6A1B069A4207D1C7
:10150000FB6803F0E0427B681B6B1B079A4201D02B
:10151000012300E0002318461837BD4680BD00BFF8
:101520000038024080B584B000AF786039607B68D5
:10153000002B01D10123CCE0684B1B6803F00F03A3
:101540003A689A420CD9654B3A68D2B21A70634B2A
:101550001B6803F00F033A689A4201D00123B8E0F8
:101560007B681B6803F00203002B20D07B681B689C
:1015700003F00403002B05D0594B9B68584A43F4F1
:10158000E05393607B681B6803F00803002B05D0D1
:10159000534B9B68524A43F460439360504B9B68A3
:1015A00023F0F0027B689B684D4913438B607B6896
:1015B0001B6803F00103002B44D07B685B68012BA0
:1015C00007D1474B1B6803F40033002B19D10123CB
:1015D0007FE07B685B68022B03D07B685B68032B32
:1015E00007D13F4B1B6803F00073002B09D1012387
:1015F0006FE03B4B1B6803F00203002B01D101237A
:1016000067E0374B9B6823F003027B685B683449D3
:1016100013438B60FFF7AEFBF8600AE0FFF7AAFB0D
:101620000246FB68D31A41F28832934201D9032360
:101630004FE02B4B9B6803F00C027B685B689B00C0
:101640009A42EBD1254B1B6803F00F033A689A428C
:101650000CD2224B3A68D2B21A70204B1B6803F0AE
:101660000F033A689A4201D0012332E07B681B687D
:1016700003F00403002B08D0194B9B6823F4E052BD
:101680007B68DB68164913438B607B681B6803F03B
:101690000803002B09D0124B9B6823F460427B683F
:1016A0001B69DB000E4913438B6001F0F9F9024618
:1016B0000B4B9B681B0903F00F030A49CB5C22FA12
:1016C00003F3094A1360094B1B681846FFF70EFB2A
:1016D000002318461037BD4680BD00BF003C0240C5
:1016E0000038024094F200080000002004000020AE
:1016F00080B58CB000AFF860B9607A60FB68002BF1
:1017000029D10023BB612B4B1B6B2A4A43F00103F9
:101710001363284B1B6B03F00103BB61BB694FF4E0
:101720008073FB6102233B620323BB6200237B6265
:101730000023FB6207F11C0319461F4802F012F850
:101740001C4B9B6823F0EC62B9687B680B4319491A
:1017500013438B6029E000237B61164B1B6B154AFA
:1017600043F004031363134B1B6B03F004037B610F
:101770007B694FF40073FB6102233B620323BB626E
:1017800000237B620023FB6207F11C0319460B4810
:1017900001F0E8FF074B9B6823F078427B68D90093
:1017A000BB680B43034913438B6000BF3037BD4612
:1017B00080BD00BF00380240000002400008024027
:1017C00080B400AF034B01221A6000BFBD465DF834
:1017D000047B70474C00474280B400AF034B0022AB
:1017E0001A6000BFBD465DF8047B70474C0047425D
:1017F0002DE9B04F94B000AF00237B640023FB645D
:1018000000233B640023BB64794B9B6803F00C030B
:10181000082B0DD0082B00F2E180002B02D0042B06
:1018200003D0DBE0734BBB64DBE0734BBB64D8E0FD
:101830006F4B5B6803F03F037B646D4B5B6803F4A5
:101840008003002B63D06A4B5B689B090022BB635B
:10185000FA63BB6BC3F308033B6300237B63D7E9E5
:101860000C4522462B464FF000004FF00001590175
:1018700041EAD261500102460B462146511A3961B4
:10188000294663EB01037B614FF000024FF0000338
:10189000D7E904AB59468B01514643EA916351465F
:1018A0008A015146B2EB0108594663EB01094FF03A
:1018B00000024FF000034FEAC90343EA58734FEAAE
:1018C000C80290469946234618EB0303BB602B469B
:1018D00049EB0303FB604FF000024FF00003D7E930
:1018E000024529464B02214643EAD15321464A028A
:1018F000104619467B6C0022BB62FA62D7E90A23C4
:1019000006F036FC02460B461346FB6458E0384BA3
:101910005B689B09002218461146C0F308033B622E
:1019200000237B62D7E9088942464B464FF000000E
:101930004FF00001590141EAD261500102460B46C5
:101940004146B2EB010A494663EB010B4FF000023E
:101950004FF000034FEA8B1343EA9A634FEA8A126F
:10196000B2EB0A0463EB0B054FF000024FF00003EB
:10197000EB0043EA5473E20014461D464346E31865
:101980003B604B4645EB03037B604FF000024FF09A
:101990000003D7E9004529468B02214643EA9153CB
:1019A00021468A02104619467B6C0022BB61FA610F
:1019B000D7E9062306F0DCFB02460B461346FB6420
:1019C0000B4B5B681B0C03F0030301335B003B64B0
:1019D000FA6C3B6CB2FBF3F3BB6402E0054BBB64F7
:1019E00000BFBB6C18465037BD46BDE8B08F00BF86
:1019F000003802400024F40000127A0080B400AFE6
:101A0000034B1B681846BD465DF8047B704700BF5A
:101A10000000002080B500AFFFF7F0FF0246054B45
:101A20009B689B0A03F007030349CB5C22FA03F38C
:101A3000184680BD00380240A4F2000880B500AF0F
:101A4000FFF7DCFF0246054B9B685B0B03F00703C7
:101A50000349CB5C22FA03F3184680BD00380240EC
:101A6000A4F2000880B483B000AF78607B680F22D6
:101A70001A60454B1B6803F48023B3F5802F04D113
:101A80007B684FF4A0225A600EE03F4B1B6803F4C2
:101A90008033B3F5803F04D17B684FF480325A60C5
:101AA00002E07B6800225A60374B1B6803F0010399
:101AB000012B03D17B680122DA6002E07B680022FF
:101AC000DA60314B1B68DB0803F01F027B681A6188
:101AD0002D4B1B6F03F00403042B03D17B680522FD
:101AE0009A600CE0284B1B6F03F00103012B03D11C
:101AF0007B6801229A6002E07B6800229A60224B98
:101B00005B6F03F00103012B03D17B6801225A6153
:101B100002E07B6800225A611B4B1B6803F0807354
:101B2000B3F1807F03D17B6802229A6102E07B6877
:101B300001229A61144B5B6803F480027B68DA61CE
:101B4000114B5B6803F03F027B681A620E4B5B68C7
:101B50009B09C3F308027B685A620B4B5B6803F472
:101B6000403303F580335B001A0C7B689A62064BA6
:101B70005B681B0E03F00F027B68DA6200BF0C3754
:101B8000BD465DF8047B70470038024080B483B0E6
:101B900000AF786039607B680F221A60124B9B6837
:101BA00003F003027B685A600F4B9B6803F0F0025E
:101BB0007B689A600C4B9B6803F4E0527B68DA60A8
:101BC000094B9B68DB0803F4E0527B681A61074B02
:101BD0001B6803F00F023B681A6000BF0C37BD465C
:101BE0005DF8047B704700BF00380240003C0240B3
:101BF00080B500AF064BDB6803F08003802B04D177
:101C000000F00AF8034B80221A7000BF80BD00BFAD
:101C1000003802400E38024080B400AF00BFBD461D
:101C20005DF8047B704700BF80B58CB000AF786072
:101C300000237B6200233B620023FB610023BB6126
:101C400000237B6100233B610023FB600023FB62D8
:101C50000023BB627B681B6803F00103002B10D0DC
:101C60006F4BD3F88C3023F0C0627B689B6B6C4960
:101C70001343C1F88C307B689B6B002B01D101238F
:101C8000FB627B681B6803F00203002B10D0644BDF
:101C9000D3F88C3023F0C0527B68DB6B6049134370
:101CA000C1F88C307B68DB6B002B01D10123FB6218
:101CB0007B681B6803F00403002B17D0584BD3F844
:101CC0008C3023F440127B681B6B55491343C1F8D9
:101CD0008C307B681B6BB3F5801F01D10123FB6245
:101CE0007B681B6B002B01D10123BB627B681B68E7
:101CF00003F00803002B17D0494BD3F88C3023F4A2
:101D000040027B685B6B46491343C1F88C307B68AB
:101D10005B6BB3F5800F01D10123FB627B685B6BCA
:101D2000002B01D10123BB627B681B6803F02003F9
:101D3000002B00F08A800023BB60394B1B6C384AB3
:101D400043F080531364364B1B6C03F08053BB602D
:101D5000BB68344B1B68334A43F480731360FFF74E
:101D600009F8786208E0FFF705F802467B6AD31AA3
:101D7000022B01D9032378E22A4B1B6803F48073FA
:101D8000002BF0D0264B1B6F03F440733B623B6A81
:101D9000002B2FD07B681B6C03F440733A6A9A4285
:101DA00028D01F4B1B6F23F440733B621E4B012254
:101DB0001A601D4B00221A60194A3B6A1367184BC0
:101DC0001B6F03F00103012B14D1FEF7D3FF7862E0
:101DD0000AE0FEF7CFFF02467B6AD31A41F288324F
:101DE000934201D9032340E20D4B1B6F03F0020322
:101DF000002BEED07B681B6C03F44073B3F5407F7F
:101E000014D1074B9B6823F4F8127B681B6C23F0FA
:101E1000704323F44073024913438B600CE000BF0E
:101E20000038024000700040400E47424A4B9B6819
:101E3000494A23F4F8139360474B1A6F7B681B6C75
:101E4000C3F30B03444913430B677B681B6803F020
:101E50001003002B04D07B6893F858203F4B1A6086
:101E60007B681B6803F08003002B0AD03A4BD3F841
:101E7000943023F440027B68DB6C37491343C1F88C
:101E800094307B681B6803F04003002B0AD0324B70
:101E9000D3F8943023F080627B689B6C2E49134307
:101EA000C1F894307B681B6803F48073002B11D059
:101EB000294BD3F8943023F000627B685B6D264990
:101EC0001343C1F894307B685B6DB3F1006F01D1AF
:101ED0000123BB627B681B6803F40073002B0AD0EC
:101EE0001D4BD3F8943023F080527B685B6C1A4909
:101EF0001343C1F894307B681B6803F48063002BA4
:101F000011D0154BD3F8943023F000527B681B6D31
:101F100011491343C1F894307B681B6DB3F1005F26
:101F200001D10123FB62FB6A012B05D07B681B6892
:101F3000B3F5006F40F0FF80094B00221A60FEF7F6
:101F400019FF78620EE0FEF715FF02467B6AD31A8E
:101F5000022B07D9032388E100380240E0114742F1
:101F6000680047427E4B1B6803F00063002BEAD1F8
:101F70007B681B6803F00103002B03D07B689B6B1D
:101F8000002B09D07B681B6803F00203002B28D0CC
:101F90007B68DB6B002B24D1714BD3F884301B0C96
:101FA00003F0030301335B00FB616D4BD3F8843016
:101FB0001B0E03F00F03BB617B685A687B689B684C
:101FC0009B011A43FB695B08013B1B041A43BB6975
:101FD0001B061A437B685B691B0761491343C1F801
:101FE00084307B681B6803F00403002B04D07B68FB
:101FF0001B6BB3F5801F0AD07B681B6803F00803D6
:10200000002B35D07B685B6BB3F5800F30D1544B20
:10201000D3F884301B0C03F0030301335B00FB6136
:102020004F4BD3F884301B0F03F007037B617B68B1
:102030005A687B689B689B011A43FB695B08013BFC
:102040001B041A437B681B691B061A437B691B0729
:1020500043491343C1F88430414BD3F88C3023F00B
:102060001F027B689B6A013B3D491343C1F88C30DA
:102070007B681B6803F48063002B29D07B681B6D91
:10208000B3F1005F24D1364BD3F884301B0C03F03E
:10209000030301335B00BB61314BD3F884301B0F6A
:1020A00003F007037B617B685A687B689B689B0130
:1020B0001A437B68DB685B08013B1B041A43BB695E
:1020C0001B061A437B691B0725491343C1F884305B
:1020D0007B681B6803F40063002B16D07B685A688A
:1020E0007B689B689B011A437B68DB685B08013B4C
:1020F0001B041A437B681B691B061A437B685B69D8
:102100001B0717491343C1F88430164B01221A608C
:10211000FEF730FE786208E0FEF72CFE02467B6A8E
:10212000D31A022B01D903239FE00D4B1B6803F048
:102130000063002BF0D0BB6A012B40F095800A4B66
:1021400000221A60FEF716FE78620FE0FEF712FE1C
:1021500002467B6AD31A022B08D9032385E000BF0D
:10216000003802406800474270004742414B1B68FC
:1021700003F00053B3F1005FE8D07B681B6803F005
:102180000403002B03D07B681B6B002B09D07B68FA
:102190001B6803F00803002B2BD07B685B6B002BC4
:1021A00027D1344BD3F888301B0C03F003030133E1
:1021B0005B003B617B689A697B68DB699B011A4322
:1021C0003B695B08013B1B041A437B685B6A1B0687
:1021D00028491343C1F88830264BD3F88C3023F4B8
:1021E000F8527B68DB6A013B1B0222491343C1F8AA
:1021F0008C307B681B6803F48073002B1DD07B68D8
:102200005B6DB3F1006F18D11A4BD3F888301B0EF9
:1022100003F00F03FB607B689A697B68DB699B01B5
:102220001A437B681B6A5B08013B1B041A43FB686B
:102230001B0610491343C1F888300F4B01221A6066
:10224000FEF798FD786208E0FEF794FD02467B6A8F
:10225000D31A022B01D9032307E0064B1B6803F0B6
:102260000053B3F1005FEFD1002318463037BD466D
:1022700080BD00BF003802407000474280B485B086
:1022800000AF78607B6840F2FF721A605D4BD3F854
:10229000843003F03F027B685A605A4BD3F8843095
:1022A0009B09C3F308027B689A60564BD3F88430CD
:1022B0001B0C03F0030301335A007B68DA60514BB7
:1022C000D3F884301B0E03F00F027B681A614D4B6C
:1022D000D3F884301B0F03F007027B685A61494B27
:1022E000D3F8883003F03F027B689A61454BD3F8FE
:1022F00088309B09C3F308027B68DA61414BD3F84D
:1023000088301B0C03F0030301335A007B681A6208
:102310003C4BD3F888301B0E03F00F027B685A62E7
:10232000384BD3F88C3003F01F027B689A62354B30
:10233000D3F88C301B0A03F01F027B68DA62314B42
:10234000D3F88C3003F440127B681A632D4BD3F81A
:102350008C3003F440027B685A632A4BD3F88C30EC
:1023600003F0C0627B689A63264BD3F88C3003F08D
:10237000C0527B68DA63234B9B6803F4F813FB605D
:10238000204B1B6F03F44072FB681A437B681A648E
:102390001C4BD3F8943003F080627B689A64194B2D
:1023A000D3F8943003F440027B68DA64154BD3F819
:1023B000943003F000627B685A65124BD3F8943076
:1023C00003F080527B685A640E4BD3F8943003F0CC
:1023D00000527B681A650B4BD3F88C3003F0807386
:1023E000002B04D17B68002283F8582003E07B682F
:1023F000012283F8582000BF1437BD465DF8047BE6
:10240000704700BF0038024080B489B000AF7860E8
:1024100000237B610023FB610023BB6100233B6140
:102420000023FB600023BB607B68013B072B00F2AD
:10243000248201A252F823F03B26000865270008F9
:102440007B280008592400087B2800087B28000806
:102450007B28000859240008A84BD3F88C303B6136
:102460003B6903F470033B613B69B3F5400F00F037
:10247000D6803B69B3F5400F00F2DD803B69B3F5D0
:10248000000F00F09F803B69B3F5000F00F2D3808E
:102490003B69B3F5800F5BD03B69B3F5800F00F269
:1024A000CA803B69B3F5401F00F0B6803B69B3F5C5
:1024B000401F00F2C0803B69B3F5001F00F082802E
:1024C0003B69B3F5001F00F2B6803B69002B04D0D6
:1024D0003B69B3F5801F3BD0ADE0884B5B6803F4EC
:1024E0008003002B09D1854BD3F8883003F03F03DC
:1024F000834AB2FBF3F3BB6108E0804BD3F888302A
:1025000003F03F037F4AB2FBF3F3BB617B4BD3F88D
:1025100088301B0E03F00F037B61784BD3F88830B3
:102520009B09C3F30803BA6903FB02F27B69B2FBA0
:10253000F3F3FB61714BD3F88C301B0A03F01F03DC
:1025400001337B61FA697B69B2FBF3F3FB6173E0F2
:102550006A4B5B6803F48003002B09D1674BD3F807
:10256000843003F03F03664AB2FBF3F3BB6108E03B
:10257000624BD3F8843003F03F03624AB2FBF3F3BB
:10258000BB615E4BD3F884301B0E03F00F037B61FD
:102590005A4BD3F884309B09C3F30803BA6903FB91
:1025A00002F27B69B2FBF3F3FB61544BD3F88C303E
:1025B00003F01F0301337B61FA697B69B2FBF3F31C
:1025C000FB6139E04D4B5B6803F48003002B08D1BD
:1025D0004A4B5B6803F03F03494AB2FBF3F3BB612C
:1025E00007E0464B5B6803F03F03464AB2FBF3F358
:1025F000BB61424B5B681B0F03F007037B613F4BE2
:102600005B689B09C3F30803BA6903FB02F27B69A9
:10261000B2FBF3F3FB610FE03B4BFB610CE0374B8C
:102620005B6803F48003002B02D1354BFB6103E0B0
:10263000344BFB6100E000BF20E1304BD3F88C301D
:1026400003F0C063FB60FB68B3F1C06F79D0FB6837
:10265000B3F1C06F00F28280FB68B3F1806F3CD0B1
:10266000FB68B3F1806F79D8FB68002B06D0FB685C
:10267000B3F1007F72D1244BFB6172E01F4B5B68AA
:1026800003F48003B3F5800F09D11C4BD3F88430D9
:1026900003F03F031B4AB2FBF3F3BB6108E0174BA7
:1026A000D3F8843003F03F03154AB2FBF3F3BB6168
:1026B000124BD3F884309B09C3F30802BB6902FBB9
:1026C00003F3BB600D4BD3F884301B0F03F00703FB
:1026D000BA68B2FBF3F3FB6143E0084B5B6803F4B9
:1026E0008003B3F5800F11D1044B5B6803F03F0307
:1026F000044AB2FBF3F3BB6110E000BF00380240B4
:102700000024F40000127A000080BB005F4B5B687D
:1027100003F03F035E4AB2FBF3F3BB615B4B5B68C4
:102720009B09C3F30802BB6902FB03F3BB60574B71
:102730005B681B0F03F00703BA68B2FBF3F3FB619E
:102740000FE0524B5B6803F48003B3F5800F02D1B6
:10275000504BFB6105E04E4BFB6102E00023FB6147
:1027600000BF8BE0494BD3F88C3003F0C053FB60C3
:10277000FB68B3F1C05F6FD0FB68B3F1C05F78D87E
:10278000FB68B3F1805F3CD0FB68B3F1805F70D829
:10279000FB68002B06D0FB68B3F1006F69D13E4B9C
:1027A000FB6169E0394B5B6803F48003B3F5800F8C
:1027B00009D1364BD3F8843003F03F03354AB2FBDE
:1027C000F3F3BB6108E0314BD3F8843003F03F03EF
:1027D0002F4AB2FBF3F3BB612C4BD3F884309B0937
:1027E000C3F30802BB6902FB03F3BB60274BD3F8BA
:1027F00084301B0F03F00703BA68B2FBF3F3FB61ED
:102800003AE0224B5B6803F48003B3F5800F08D1F4
:102810001E4B5B6803F03F031E4AB2FBF3F3BB6140
:1028200007E01A4B5B6803F03F03194AB2FBF3F36E
:10283000BB61164B5B689B09C3F30802BB6902FBD3
:1028400003F3BB60114B5B681B0F03F00703BA680F
:10285000B2FBF3F3FB610FE00C4B5B6803F4800306
:10286000B3F5800F02D10B4BFB6105E0084BFB6118
:1028700002E00023FB6100BF00E000BFFB691846D7
:102880002437BD465DF8047B704700BF0038024026
:102890000024F40000127A000080BB0080B483B0F2
:1028A00000AF0346FB71FB79012B06D1094B1B6F6F
:1028B000084A43F00803136705E0064B1B6F054AFF
:1028C00023F00803136700BF0C37BD465DF8047B97
:1028D000704700BF0038024080B584B000AF786018
:1028E000234B00221A60FEF745FAF86008E0FEF775
:1028F00041FA0246FB68D31A022B01D9032333E0C5
:102900001C4B1B6803F00063002BF0D17B681A6836
:102910007B685B689B011A437B689B685B08013B93
:102920001B041A437B68DB681B061A437B681B6920
:102930001B0710491343C1F884300D4B01221A6064
:10294000FEF718FAF86008E0FEF714FA0246FB6892
:10295000D31A022B01D9032306E0064B1B6803F0B0
:102960000063002BF0D0002318461037BD4680BD11
:10297000680047420038024080B582B000AF0D4B7E
:1029800000221A60FEF7F6F9786008E0FEF7F2F927
:1029900002467B68D31A022B01D9032306E0064BBB
:1029A0001B6803F00063002BF0D1002318460837A2
:1029B000BD4680BD680047420038024080B584B003
:1029C00000AF7860224B00221A60FEF7D3F9F8605E
:1029D00008E0FEF7CFF90246FB68D31A022B01D9B3
:1029E000032331E01B4B1B6803F00053B3F1005F7E
:1029F000EFD07B681A687B685B689B011A437B6831
:102A00009B685B08013B1B041A437B68DB681B0661
:102A100010491343C1F888300D4B01221A60FEF7AC
:102A2000A9F9F86008E0FEF7A5F90246FB68D31A99
:102A3000022B01D9032307E0064B1B6803F0005368
:102A4000B3F1005FEFD1002318461037BD4680BDBB
:102A5000700047420038024080B582B000AF0E4B94
:102A600000221A60FEF786F9786008E0FEF782F926
:102A700002467B68D31A022B01D9032307E0074BD8
:102A80001B6803F00053B3F1005FEFD0002318463A
:102A90000837BD4680BD00BF700047420038024085
:102AA0002DE9B04FAEB000AF0023C7F8AC30002323
:102AB000C7F8B4300023C7F8A8300023C7F8A43003
:102AC0000023C7F8B030CB4B9B6803F00C030C2BF2
:102AD00000F2068201A252F823F000BF112B000879
:102AE000E12E0008E12E0008E12E0008192B000855
:102AF000E12E0008E12E0008E12E0008212B00083D
:102B0000E12E0008E12E0008E12E0008112D00083A
:102B1000B94BC7F8B030E7E1B84BC7F8B030E3E1E4
:102B2000B44B5B6803F03F03C7F8AC30B14B5B6854
:102B300003F48003002B71D0AE4B5B689B0900222D
:102B4000C7F89830C7F89C20D7F89830C3F308032B
:102B5000C7F890300023C7F89430D7E924452246BF
:102B60002B464FF000004FF00001590141EAD261BD
:102B7000500102460B462146511A3964294663EB3F
:102B800001037B644FF000024FF00003D7E9108986
:102B900049468B01414643EA916341468A014146D9
:102BA000511AB963494663EB0103FB634FF000021E
:102BB0004FF00003D7E90E894946CB00414643EA6E
:102BC00051734146CA0010461946034622469B18D7
:102BD0003B632B460A4642EB03037B634FF0000244
:102BE0004FF00003D7E90C4529464B02214643EA42
:102BF000D15321464A0210461946D7F8AC3000227C
:102C0000C7F88830C7F88C20D7E9222305F0B0FA3E
:102C100002460B461346C7F8B43067E0754B5B6855
:102C20009B090022C7F88030C7F88420D7F880308D
:102C3000C3F30803BB670023FB67D7E91E452246A1
:102C40002B464FF000004FF00001590141EAD261DC
:102C5000500102460B462146511AB962294663EBE0
:102C60000103FB624FF000024FF00003D7E90A892D
:102C700049468B01414643EA916341468A014146F8
:102C8000B2EB010A494663EB010B4FF000024FF033
:102C900000034FEACB0343EA5A734FEACA02924653
:102CA0009B4623461AEB03033B622B464BEB030385
:102CB0007B624FF000024FF00003D7E90845294638
:102CC0008B02214643EA915321468A021046194657
:102CD000D7F8AC3000223B677A67D7E91C2305F0B0
:102CE00047FA02460B461346C7F8B430414B5B68BF
:102CF0001B0C03F0030301335B00C7F8A830D7F8BF
:102D0000B420D7F8A830B2FBF3F3C7F8B030EBE04B
:102D1000384B5B6803F03F03C7F8AC30354B5B685A
:102D200003F48003002B6BD0324B5B689B090022BD
:102D3000BB66FA66BB6EC3F308033B6600237B6683
:102D4000D7E9184522462B464FF000004FF000010E
:102D5000590141EAD261500102460B462146511AFF
:102D6000B961294663EB0103FB614FF000024FF0AC
:102D70000003D7E906AB59468B01514643EA9163FC
:102D800051468A015146B2EB0108594663EB0109ED
:102D90004FF000024FF000034FEAC90343EA5873B3
:102DA0004FEAC80290469946234618EB03033B615D
:102DB0002B4649EB03037B614FF000024FF0000309
:102DC000D7E9044529464B02214643EAD15321461F
:102DD0004A0210461946D7F8AC300022BB65FA65A6
:102DE000D7E9162305F0C4F902460B461346C7F887
:102DF000B43065E0003802400024F40000127A008C
:102E00003D4B5B689B09002218461146C0F308033E
:102E10003B6500237B65D7E9148942464B464FF05A
:102E200000004FF00001590141EAD2615001024611
:102E30000B464146511AB960494663EB0103FB60FA
:102E40004FF000024FF00003D7E902AB59468B0167
:102E5000514643EA916351468A015146541A5946F4
:102E600063EB01054FF000024FF00003EB0043EA73
:102E70005473E20014461D464346E3183B604B463C
:102E800045EB03037B604FF000024FF00003D7E9EE
:102E9000004529468B02214643EA915321468A0286
:102EA00010461946D7F8AC300022BB64FA64D7E963
:102EB000122305F05DF902460B461346C7F8B430FD
:102EC0000D4B5B681B0F03F00703C7F8A430D7F85E
:102ED000B420D7F8A430B2FBF3F3C7F8B03003E066
:102EE000064BC7F8B03000BFD7F8B0301846B83737
:102EF000BD46BDE8B08F00BF003802400024F4009A
:102F000080B582B000AFFDF735FF7860724B1B686B
:102F1000714A43F00103136008E0FDF72BFF0246FE
:102F20007B68D31A022B01D90323D0E06A4B1B68BC
:102F300003F00203002BF0D0674B1B68664A43F096
:102F400080031360FDF716FF7860634B00229A60E0
:102F50000AE0FDF70FFF02467B68D31A41F2883280
:102F6000934201D90323B2E05B4B9B6803F00C034F
:102F7000002BEED1FDF7FEFE7860574B1B68564ADA
:102F800023F45023136008E0FDF7F4FE02467B684B
:102F9000D31A642B01D9032399E04F4B1B6803F428
:102FA0000033002BF0D1FDF7E5FE78604A4B1B683B
:102FB000494A23F08073136008E0FDF7DBFE024608
:102FC0007B68D31A022B01D9032380E0424B1B6894
:102FD00003F00073002BF0D1FDF7CCFE78603E4B80
:102FE0001B683D4A23F08063136008E0FDF7C2FED2
:102FF00002467B68D31A022B01D9032367E0364BC4
:103000001B6803F00063002BF0D1FDF7B3FE78607E
:10301000314B1B68304A23F08053136008E0FDF702
:10302000A9FE02467B68D31A022B01D903234EE086
:10303000294B1B6803F00053002BF0D1264B274A85
:103040005A60254B254AC3F88420234B244AC3F8F1
:103050008820214BDB68204A23F4F853D3601E4BB1
:10306000DB681D4A23F40053D3601B4BDB681A4A0C
:1030700023F48043D360184BDB68174A43F41F03E3
:10308000D360154BDB68144A43F40013D360124B32
:10309000DB68114A43F48003D3600F4B5B6F0E4A29
:1030A00023F0010353670C4B5B6F0B4A43F08073B3
:1030B00053670C4B0C4A1A600C4B1B681846FDF703
:1030C00015FE0346002B01D0012300E00023184623
:1030D0000837BD4680BD00BF0038024010300024D4
:1030E00010300004000000200024F4000400002040
:1030F00080B586B000AF78607B68002B01D10123DA
:103100008DE27B681B6803F00103002B00F08380D5
:10311000944B9B6803F00C03042B19D0914B9B68D4
:1031200003F00C03082B06D18E4B5B6803F480037D
:10313000B3F5800F0CD08B4B9B6803F00C030C2B6A
:1031400012D1884B5B6803F48003B3F5800F0BD179
:10315000844B1B6803F40033002B5BD07B685B68F7
:10316000002B57D101235AE27B685B68B3F5803F9F
:1031700006D17C4B1B687B4A43F4803313601DE00F
:103180007B685B68B3F5A02F0CD1764B1B68754A42
:1031900043F480231360734B1B68724A43F48033FB
:1031A00013600BE06F4B1B686E4A23F4803313608F
:1031B0006C4B1B686B4A23F4802313607B685B684D
:1031C000002B13D0FDF7D6FD386108E0FDF7D2FDE6
:1031D00002463B69D31A642B01D903231FE2614BDA
:1031E0001B6803F40033002BF0D014E0FDF7C2FDA0
:1031F000386108E0FDF7BEFD02463B69D31A642B37
:1032000001D903230BE2574B1B6803F40033002B57
:10321000F0D100E000BF7B681B6803F00203002BC5
:103220006FD0504B9B6803F00C03002B17D04D4B15
:103230009B6803F00C03082B05D14A4B5B6803F431
:103240008003002B0BD0474B9B6803F00C030C2B27
:103250001CD1444B5B6803F48003002B16D1414B17
:103260001B6803F00203002B05D07B68DB68012B91
:1032700001D00123D3E13B4B1B6823F0F8027B68AC
:103280001B69DB00374913430B603AE07B68DB685E
:10329000002B20D0344B01221A60FDF76BFD386102
:1032A00008E0FDF767FD02463B69D31A022B01D9FE
:1032B0000323B4E12B4B1B6803F00203002BF0D077
:1032C000284B1B6823F0F8027B681B69DB0025494B
:1032D00013430B6015E0244B00221A60FDF74AFDF2
:1032E000386108E0FDF746FD02463B69D31A022B20
:1032F00001D9032393E11B4B1B6803F00203002B4E
:10330000F0D17B681B6803F00803002B36D07B6884
:103310005B69002B16D0154B01221A60FDF72AFDC0
:10332000386108E0FDF726FD02463B69D31A022BFF
:1033300001D9032373E10B4B5B6F03F00203002BF6
:10334000F0D01BE0094B00221A60FDF713FD386135
:103350000EE0FDF70FFD02463B69D31A022B07D999
:1033600003235CE10038024000004742800E4742E0
:103370008A4B5B6F03F00203002BEAD17B681B686A
:1033800003F00403002B00F097800023FB75834BB0
:103390001B6C03F08053002B0FD10023BB607F4BCD
:1033A0001B6C7E4A43F0805313647C4B1B6C03F010
:1033B0008053BB60BB680123FB75794B1B6803F42A
:1033C0008073002B18D1764B1B68754A43F48073C9
:1033D0001360FDF7CFFC386108E0FDF7CBFC024637
:1033E0003B69D31A022B01D9032318E16C4B1B68EC
:1033F00003F48073002BF0D07B689B68012B06D10F
:10340000664B1B6F654A43F0010313671CE07B6842
:103410009B68052B0CD1614B1B6F604A43F0040382
:1034200013675E4B1B6F5D4A43F0010313670BE0AC
:103430005A4B1B6F594A23F001031367574B1B6FFD
:10344000564A23F0040313677B689B68002B15D052
:10345000FDF790FC38610AE0FDF78CFC02463B6901
:10346000D31A41F28832934201D90323D7E04B4B60
:103470001B6F03F00203002BEED014E0FDF77AFC83
:1034800038610AE0FDF776FC02463B69D31A41F247
:103490008832934201D90323C1E0404B1B6F03F0F4
:1034A0000203002BEED1FB7D012B05D13B4B1B6CA6
:1034B0003A4A23F0805313647B689B69002B00F029
:1034C000AD80364B9B6803F00C03082B60D07B6803
:1034D0009B69022B45D1334B00221A60FDF74AFC51
:1034E000386108E0FDF746FC02463B69D31A022B1F
:1034F00001D9032393E0294B1B6803F00073002BD1
:10350000F0D17B68DA697B681B6A1A437B685B6A67
:103510009B011A437B689B6A5B08013B1B041A43AF
:103520007B68DB6A1B061A437B681B6B1B071B4906
:1035300013434B601B4B01221A60FDF71BFC3861E3
:1035400008E0FDF717FC02463B69D31A022B01D9AC
:10355000032364E0114B1B6803F00073002BF0D0D1
:103560005CE0104B00221A60FDF704FC386108E0B3
:10357000FDF700FC02463B69D31A022B01D9032355
:103580004DE0064B1B6803F00073002BF0D145E0C3
:103590007B689B69012B07D1012340E00038024082
:1035A00000700040600047421F4B5B68FB607B6817
:1035B0009B69012B30D0FB6803F480027B68DB69D8
:1035C0009A4229D1FB6803F03F027B681B6A9A424A
:1035D00022D1FA6847F6C07313407A68526A9201A2
:1035E000934219D1FB6803F440327B689B6A5B0805
:1035F000013B1B049A420FD1FB6803F070627B68A9
:10360000DB6A1B069A4207D1FB6803F0E0427B6845
:103610001B6B1B079A4201D0012300E000231846D0
:103620001837BD4680BD00BF0038024080B483B06B
:1036300000AF78607B680F221A60494B1B6803F467
:103640008023B3F5802F04D17B684FF4A0225A6009
:103650000EE0434B1B6803F48033B3F5803F04D185
:103660007B684FF480325A6002E07B6800225A6027
:103670003B4B1B6803F00103012B03D17B68012244
:10368000DA6002E07B680022DA60354B1B68DB08F9
:1036900003F01F027B681A61314B1B6F03F00403B8
:1036A000042B03D17B6805229A600CE02C4B1B6F26
:1036B00003F00103012B03D17B6801229A6002E031
:1036C0007B6800229A60264B5B6F03F00103012B9D
:1036D00003D17B6801225A6102E07B6800225A61B3
:1036E0001F4B1B6803F08073B3F1807F03D17B68AD
:1036F00002229A6102E07B6801229A61184B5B68A2
:1037000003F480027B68DA61154B5B6803F03F02CB
:103710007B681A62124B5B689B09C3F308027B68E3
:103720005A620F4B5B6803F4403303F580335B0050
:103730001A0C7B689A620A4B5B681B0E03F00F023F
:103740007B68DA62064B5B681B0F03F007027B683D
:103750001A6300BF0C37BD465DF8047B704700BF9D
:103760000038024080B489B000AF7860396000232F
:103770007B6100233B610023BB610023FB6165E1AA
:103780000122FB6902FA03F37B613B681B687A69DB
:1037900013403B613A697B699A4240F054813B682F
:1037A0005B6803F00303012B05D03B685B6803F003
:1037B0000303022B30D17B689B68BB61FB695B0014
:1037C000032202FA03F3DB43BA691340BB613B688F
:1037D000DA68FB695B0002FA03F3BA691343BB6161
:1037E0007B68BA699A607B685B68BB610122FB6990
:1037F00002FA03F3DB43BA691340BB613B685B68C1
:103800001B0903F00102FB6902FA03F3BA691343CF
:10381000BB617B68BA695A603B685B6803F003036D
:10382000032B17D07B68DB68BB61FB695B0003225D
:1038300002FA03F3DB43BA691340BB613B689A6841
:10384000FB695B0002FA03F3BA691343BB617B684F
:10385000BA69DA603B685B6803F00303022B23D18B
:10386000FB69DA087B68083253F82230BB61FB69D8
:1038700003F007039B000F2202FA03F3DB43BA694C
:103880001340BB613B681A69FB6903F007039B00A7
:1038900002FA03F3BA691343BB61FB69DA087B6878
:1038A0000832B96943F822107B681B68BB61FB6969
:1038B0005B00032202FA03F3DB43BA691340BB61E6
:1038C0003B685B6803F00302FB695B0002FA03F3E9
:1038D000BA691343BB617B68BA691A603B685B686D
:1038E00003F44033002B00F0AE800023FB605D4BFF
:1038F0005B6C5C4A43F4804353645A4B5B6C03F447
:103900008043FB60FB68584AFB699B08023352F80E
:103910002330BB61FB6903F003039B000F2202FA13
:1039200003F3DB43BA691340BB617B684F4A9342A0
:1039300025D07B684E4A93421FD07B684D4A934204
:1039400019D07B684C4A934213D07B684B4A934210
:103950000DD07B684A4A934207D07B68494A93421C
:1039600001D106230CE007230AE0052308E0042325
:1039700006E0032304E0022302E0012300E0002329
:10398000FA6902F0030292009340BA691343BB61E3
:103990003549FB699B080233BA6941F823203A4B49
:1039A0009B68BB613B69DB43BA691340BB613B6801
:1039B0005B6803F48013002B03D0BA693B6913439F
:1039C000BB61314ABB6993602F4BDB68BB613B69CC
:1039D000DB43BA691340BB613B685B6803F40013C7
:1039E000002B03D0BA693B691343BB61264ABB690C
:1039F000D360254B5B68BB613B69DB43BA6913400D
:103A0000BB613B685B6803F40033002B03D0BA69E9
:103A10003B691343BB611C4ABB6953601A4B1B686B
:103A2000BB613B69DB43BA691340BB613B685B68C0
:103A300003F48033002B03D0BA693B691343BB61A5
:103A4000114ABB691360FB690133FB61FB690F2BF2
:103A50007FF696AE00BF00BF2437BD465DF8047BFD
:103A6000704700BF003802400038014000000240AB
:103A70000004024000080240000C02400010024016
:103A80000014024000180240003C014080B487B09E
:103A900000AF7860396000233B610023FB600023A6
:103AA000BB6000237B61C7E001227B6902FA03F35C
:103AB0003B613A683B691340FB60FA683B699A4294
:103AC00040F0B780624A7B699B08023352F823308A
:103AD000BB607B6903F003039B000F2202FA03F330
:103AE000BA681340BB607B685A4A934225D07B6812
:103AF000594A93421FD07B68584A934219D07B6839
:103B0000574A934213D07B68564A93420DD07B6844
:103B1000554A934207D07B68544A934201D1062309
:103B20000CE007230AE0052308E0042306E0032352
:103B300004E0022302E0012300E000237A6902F09E
:103B4000030292009340BA689A4232D1484B1A68F5
:103B5000FB68DB43464913400B60454B5A68FB68E2
:103B6000DB43434913404B60414BDA68FB68DB435E
:103B70003F491340CB603E4B9A68FB68DB433C49AE
:103B800013408B607B6903F003039B000F2202FA52
:103B900003F3BB602E4A7B699B08023352F8231063
:103BA000BB68DA432A487B699B080A40023340F825
:103BB00023207B681A687B695B00032101FA03F309
:103BC000DB431A407B681A607B69DA087B6808323D
:103BD00053F822107B6903F007039B000F2202FABF
:103BE00003F3DB437A69D20819407B68083243F853
:103BF00022107B68DA687B695B00032101FA03F31A
:103C0000DB431A407B68DA607B685A6801217B6974
:103C100001FA03F3DB431A407B685A607B689A68B9
:103C20007B695B00032101FA03F3DB431A407B68E5
:103C30009A607B6901337B617B690F2B7FF634AF20
:103C400000BF00BF1C37BD465DF8047B704700BF56
:103C50000038014000000240000402400008024019
:103C6000000C024000100240001402400018024004
:103C7000003C014080B485B000AF78600B467B808B
:103C80007B681A697B881340002B02D00123FB73E9
:103C900001E00023FB73FB7B18461437BD465DF83B
:103CA000047B704780B483B000AF78600B467B80A4
:103CB00013467B707B78002B03D07A887B689A61EF
:103CC00003E07B881A047B689A6100BF0C37BD460D
:103CD0005DF8047B704780B485B000AF78600B4618
:103CE0007B807B685B69FB607A88FB6813401A0401
:103CF000FB68D9437B880B401A437B689A6100BFFD
:103D00001437BD465DF8047B704780B485B000AFC2
:103D100078600B467B804FF48033FB607A88FB68C9
:103D20001343FB60FA687B68DA617A887B68DA6142
:103D3000FA687B68DA617B68DB69FB607B68DB695A
:103D400003F48033002B01D0002300E00123184648
:103D50001437BD465DF8047B704780B582B000AF74
:103D60000346FB80084B5A69FB881340002B06D0A2
:103D7000054AFB885361FB88184600F007F800BF2E
:103D80000837BD4680BD00BF003C014080B483B011
:103D900000AF0346FB8000BF0C37BD465DF8047BD7
:103DA000704700BF80B582B000AF78607B68002BA1
:103DB00001D1012342E07B6893F84130DBB2002B54
:103DC00006D17B68002283F840207868FCF7B6FCB7
:103DD0007B68242283F841207B681B68DA687B6853
:103DE0001B6822F40052DA60786802F066FC7B6897
:103DF0001B681A697B681B6822F490421A617B6811
:103E00001B685A697B681B6822F02A025A617B682A
:103E10001B68DA687B681B6842F40052DA607B68D2
:103E200000225A647B68202283F841207B6820228C
:103E300083F842207B6800225A6300231846083723
:103E4000BD4680BD80B582B000AF78607B68002B36
:103E500001D101234AE07B6893F84130DBB2002BAB
:103E600006D17B68002283F840207868FCF766FC66
:103E70007B68242283F841207B681B68DA687B68B2
:103E80001B6822F40052DA60786802F016FC7B6846
:103E90001B681A697B681B6822F490421A617B6870
:103EA0001B685A697B681B6822F022025A617B6892
:103EB0001B685A697B681B6842F008025A617B687C
:103EC0001B68DA687B681B6842F40052DA607B6822
:103ED00000225A647B68202283F841207B682022DC
:103EE00083F842207B6800225A6300231846083773
:103EF000BD4680BD80B582B000AF786039607B6818
:103F0000002B01D101235AE07B6893F84130DBB2EA
:103F1000002B06D17B68002283F840207868FCF7EC
:103F20000DFC7B68242283F841207B681B68DA68DB
:103F30007B681B6822F40052DA60786802F0BDFBEF
:103F40007B681B681A697B681B6822F400621A612F
:103F50007B681B685A697B681B6822F02A025A61D9
:103F60007B681B681A697B681B6842F480421A618F
:103F70007B681B681A697B681B6822F020021A6143
:103F80007B681B6819697B681B683A680A431A6179
:103F90007B681B68DA687B681B6842F40052DA6051
:103FA0007B6800225A647B68202283F841207B686A
:103FB000202283F842207B6800225A63002318469F
:103FC0000837BD4680BD80B584B000AFF8600B46B1
:103FD0007A60FB72FB68002B01D1012362E0FB6871
:103FE00093F84130DBB2002B06D1FB68002283F846
:103FF0004020F868FCF7A2FBFB68242283F84120EC
:10400000FB681B68DA68FB681B6822F40052DA6000
:10401000F86802F052FBFB681B681A69FB681B68B2
:1040200022F490421A61FB681B685A69FB681B689E
:1040300022F02A025A61FB681B681A69FB681B6838
:1040400022F00F021A61FB681B681969FA7AFB6893
:104050001B680A431A61FB681B68DA68FB681B6807
:1040600022F40062DA60FB681B68D968FB681B6891
:104070007A680A43DA60FB681B68DA68FB681B68C9
:1040800042F40052DA60FB6800225A64FB68202286
:1040900083F84120FB68202283F84220FB6800223D
:1040A0005A63002318461037BD4680BD80B582B0E4
:1040B00000AF78607B68002B01D1012324E07B688E
:1040C000242283F841207B681B68DA687B681B68C0
:1040D00022F40052DA607868FCF778FB7B680022F3
:1040E0005A647B68002283F841207B68002283F8B1
:1040F00042207B6800221A637B6800225A637B6837
:10410000002283F84020002318460837BD4680BDB2
:1041100080B483B000AF786000BF0C37BD465DF857
:10412000047B704780B483B000AF786000BF0C3769
:10413000BD465DF8047B704780B58AB002AFF86079
:10414000B9603B601346FB8000237B61FB6893F8FA
:104150004130DBB2202B75D1BB68002B02D0FB882D
:10416000002B01D101236EE0FB6800225A64FB683A
:10417000212283F84120FCF7FDFD7861FB68FA8875
:104180009A84FB68FA88DA84FB689B68B3F5805FE1
:1041900008D1FB681B69002B04D10023FB61BB68BD
:1041A000BB6103E0BB68FB610023BB612EE03B68A1
:1041B00000937B6900228021F86801F0F6FE034637
:1041C000002B05D0FB68202283F8412003233AE02E
:1041D000FB69002B0BD1BB691B881A46FB681B6867
:1041E000C2F308025A60BB690233BB6107E0FB6996
:1041F0001A78FB681B685A60FB690133FB61FB6836
:10420000DB8C9BB2013B9AB2FB68DA84FB68DB8CE7
:104210009BB2002BCBD13B6800937B6900224021ED
:10422000F86801F0C2FE0346002B05D0FB6820228F
:1042300083F84120032306E0FB68202283F8412015
:10424000002300E0022318462037BD4680BD80B51C
:104250008AB002AFF860B9603B601346FB80002370
:104260007B61FB6893F84230DBB2202B40F0818009
:10427000BB68002B02D0FB88002B01D1012379E021
:10428000FB6800225A64FB68222283F84220FB6804
:1042900000221A63FCF76EFD7861FB68FA889A8544
:1042A000FB68FA88DA85FB689B68B3F5805F08D104
:1042B000FB681B69002B04D10023FB61BB68BB6159
:1042C00003E0BB68FB610023BB6147E03B680093F0
:1042D0007B6900222021F86801F067FE0346002B6D
:1042E00005D0FB68202283F84220032342E0FB69CB
:1042F000002B0CD1FB681B685B689BB2C3F30803FF
:104300009AB2BB691A80BB690233BB611FE0FB68CC
:104310009B68B3F5805F07D0FB689B68002B0AD1D0
:10432000FB681B69002B06D1FB681B685B68DAB26F
:10433000FB691A7008E0FB681B685B68DBB203F07E
:104340007F03DAB2FB691A70FB690133FB61FB681A
:10435000DB8D9BB2013B9AB2FB68DA85FB68DB8D93
:104360009BB2002BB2D1FB68202283F842200023AD
:1043700000E0022318462037BD4680BD80B485B0DA
:1043800000AFF860B9601346FB80FB6893F84130DA
:10439000DBB2202B21D1BB68002B02D0FB88002B85
:1043A00001D101231AE0FB68BA681A62FB68FA8837
:1043B0009A84FB68FA88DA84FB6800225A64FB68F6
:1043C000212283F84120FB681B68DA68FB681B68C0
:1043D00042F08002DA60002300E00223184614371E
:1043E000BD465DF8047B704780B584B000AFF860CF
:1043F000B9601346FB80FB6893F84230DBB2202B98
:1044000012D1BB68002B02D0FB88002B01D1012305
:104410000BE0FB6800221A63FB881A46B968F8684B
:1044200001F01CFE034600E0022318461037BD468B
:1044300080BD80B58CB000AFF860B9601346FB80DA
:10444000FB6893F84130DBB2202B62D1BB68002BB4
:1044500002D0FB88002B01D101235BE0BA68FB6826
:104460001A62FB68FA889A84FB68FA88DA84FB6827
:1044700000225A64FB68212283F84120FB689B6B71
:10448000264ADA63FB689B6B254A1A64FB689B6BC0
:10449000244ADA64FB689B6B00221A6507F1080363
:1044A000FB62FB68986BFB6A1968FB681B68043346
:1044B0001A46FB8802F0BBFC0346002B08D0FB68C1
:1044C00010225A64FB68202283F84120012321E056
:1044D000FB681B686FF040021A60FB681B681433AE
:1044E000BB61BB6953E8003F7B617B6943F080039C
:1044F000BB62FB681B681433BA6A7A623B62396A32
:104500007A6A41E80023FB61FB69002BE5D10023B7
:1045100000E0022318463037BD4680BDF95C000834
:10452000935D0008175F000880B584B000AFF860A5
:10453000B9601346FB80FB6893F84230DBB2202B56
:1045400012D1BB68002B02D0FB88002B01D10123C4
:104550000BE0FB6800221A63FB881A46B968F8680A
:1045600001F0B6FD034600E0022318461037BD46B1
:1045700080BD80B49DB000AF78600023FB667B688F
:104580001B685B6903F08003802B0CBF01230023B1
:10459000DBB2FB667B6893F84130DBB2212B1CD188
:1045A000FB6E002B19D07B681B681433FB64FB6C1B
:1045B00053E8003FBB64BB6C23F08003BB667B68A1
:1045C0001B681433BA6EBA657B65796DBA6D41E8C4
:1045D00000233B653B6D002BE5D17B681B685B6965
:1045E00003F04003402B0CBF01230023DBB2FB662A
:1045F0007B6893F84230DBB2222B50D1FB6E002B4C
:104600004DD07B681B680C33BB63BB6B53E8003F2A
:104610007B637B6B23F480737B667B681B680C3346
:104620007A6E7A643B64396C7A6C41E80023FB63F0
:10463000FB6B002BE5D17B681B6814337B627B6AC4
:1046400053E8003F3B623B6A23F001033B667B6813
:104650001B6814333A6E3A63FB62F96A3A6B41E8BD
:104660000023BB62BB6A002BE5D17B681B68143357
:104670003B613B6953E8003FFB60FB6823F040036C
:10468000FB657B681B681433FA6DFA61BB61B9691D
:10469000FA6941E800237B617B69002BE5D10023A7
:1046A00018467437BD465DF8047B704780B49DB0F2
:1046B00000AF78607B6893F84130DBB2212B19D1D1
:1046C0007B681B6814333B653B6D53E8003FFB641C
:1046D000FB6C43F08003FB667B681B681433FA6E47
:1046E000FA65BB65B96DFA6D41E800237B657B6DAA
:1046F000002BE5D17B6893F84230DBB2222B5CD1F2
:104700000023FB607B681B681B68FB607B681B6881
:104710005B68FB60FB687B681B69002B19D07B68BA
:104720001B680C33FB63FB6B53E8003FBB63BB6B45
:1047300043F48073BB667B681B680C33BA6EBA6443
:104740007B64796CBA6C41E800233B643B6C002BC2
:10475000E5D17B681B681433BB62BB6A53E8003F3A
:104760007B627B6A43F001037B667B681B681433C2
:104770007A6E7A633B63396B7A6B41E80023FB62A4
:10478000FB6A002BE5D17B681B6814337B617B6976
:1047900053E8003F3B613B6943F040033B667B6865
:1047A0001B6814333A6E3A62FB61F9693A6A41E870
:1047B0000023BB61BB69002BE5D100231846743789
:1047C000BD465DF8047B704780B590B000AF78605F
:1047D0000023FB637B681B685B6903F08003802B0D
:1047E0000CBF01230023DBB2FB637B6893F84130ED
:1047F000DBB2212B28D1FB6B002B25D07B681B68FB
:1048000014337B627B6A53E8003F3B623B6A23F0D0
:104810008003BB637B681B681433BA6B3A63FB622B
:10482000F96A3A6B41E80023BB62BB6A002BE5D111
:104830007B689B6B002B04D07B689B6B184602F057
:104840004EFB786801F0EAFC7B681B685B6903F04B
:104850004003402B0CBF01230023DBB2FB637B68CA
:1048600093F84230DBB2222B28D1FB6B002B25D0F2
:104870007B681B6814333B613B6953E8003FFB6076
:10488000FB6823F040037B637B681B6814337A6BFF
:10489000FA61BB61B969FA6941E800237B617B6910
:1048A000002BE5D17B68DB6B002B04D07B68DB6BD6
:1048B000184602F014FB786801F0D8FC0023184673
:1048C0004037BD4680BD80B588B000AFF860B960A4
:1048D0003B601346FB80FB6893F84230DBB2202B31
:1048E00040F0C080BB68002B02D0FB88002B01D1B8
:1048F0000123B8E0FB6800225A64FB68222283F897
:104900004220FB6801221A63FB6800225A63FCF70D
:1049100031FA7861FB68FA889A85FB68FA88DA854B
:10492000FB689B68B3F5805F08D1FB681B69002BAF
:1049300004D10023FB61BB68BB6103E0BB68FB6182
:104940000023BB613B6800221A8077E0FB681B688C
:104950001B6803F01003102B17D100233B61FB6889
:104960001B681B683B61FB681B685B683B613B69BC
:104970003B681B88002B08D0FB6802225A63FB6847
:10498000202283F8422000236DE0FB681B681B682F
:1049900003F02003202B3CD1FB69002B0CD1FB68DA
:1049A0001B685B689BB2C3F308039AB2BB691A80A9
:1049B000BB690233BB611FE0FB689B68B3F5805F96
:1049C00007D0FB689B68002B0AD1FB681B69002B92
:1049D00006D1FB681B685B68DAB2FB691A7008E0F5
:1049E000FB681B685B68DBB203F07F03DAB2FB692C
:1049F0001A70FB690133FB613B681B8801339AB273
:104A00003B681A80FB68DB8D9BB2013B9AB2FB6866
:104A1000DA85BB6AB3F1FF3F10D0FCF7ABF9024671
:104A20007B69D31ABA6A9A4202D3BB6A002B05D1BA
:104A3000FB68202283F84220032314E0FB68DB8D0F
:104A40009BB2002B82D1FB689A8DFB68DB8D9BB2F9
:104A5000D31A9AB23B681A80FB68202283F842205E
:104A6000002300E0022318462037BD4680BD80B5F4
:104A70008CB000AFF860B9601346FB80FB6893F818
:104A80004230DBB2202B4AD1BB68002B02D0FB881E
:104A9000002B01D1012343E0FB6801221A63FB686C
:104AA00000225A63FB881A46B968F86801F0D6FA02
:104AB000034687F82F3097F82F30002B2CD1FB6856
:104AC0001B6B012B25D100233B61FB681B681B6816
:104AD0003B61FB681B685B683B613B69FB681B686B
:104AE0000C33BB61BB6953E8003F7B617B6943F0DA
:104AF0001003BB62FB681B680C33BA6A7A623B62C4
:104B0000396A7A6A41E80023FB61FB69002BE5D131
:104B100002E0012387F82F3097F82F3000E00223BE
:104B200018463037BD4680BD80B58CB000AFF86008
:104B3000B9601346FB80FB6893F84230DBB2202B50
:104B400046D1BB68002B02D0FB88002B01D101238A
:104B50003FE0FB6801221A63FB6800225A63FB886E
:104B60001A46B968F86801F0B3FA034687F82F309F
:104B7000FB681B6B012B25D100233B61FB681B6885
:104B80001B683B61FB681B685B683B613B69FB68BA
:104B90001B680C33BB61BB6953E8003F7B617B69D9
:104BA00043F01003BB62FB681B680C33BA6A7A627D
:104BB0003B62396A7A6A41E80023FB61FB69002B9A
:104BC000E5D102E0012387F82F3097F82F3000E07D
:104BD000022318463037BD4680BD80B483B000AF95
:104BE00078607B685B6B18460C37BD465DF8047BCC
:104BF000704780B5A0B000AF78607B681B680C334D
:104C0000FB65FB6D53E8003FBB65BB6D23F4F073A0
:104C1000FB677B681B680C33FA6FBA667B66796E3C
:104C2000BA6E41E800233B663B6E002BE5D17B6802
:104C30001B681433BB64BB6C53E8003F7B647B6C24
:104C400023F00103BB677B681B681433BA6F7A6576
:104C50003B65396D7A6D41E80023FB64FB6C002BEA
:104C6000E5D17B681B6B012B19D17B681B680C336A
:104C70007B637B6B53E8003F3B633B6B23F010038C
:104C80007B677B681B680C337A6F3A64FB63F96B54
:104C90003A6C41E80023BB63BB6B002BE5D17B681A
:104CA0001B685B6903F08003802B36D17B681B682F
:104CB00014333B623B6A53E8003FFB61FB6923F01E
:104CC00080033B677B681B6814333A6FFA62BB62F0
:104CD000B96AFA6A41E800237B627B6A002BE5D15E
:104CE0007B689B6B002B18D07B689B6B00221A653E
:104CF0007B689B6B184602F0F2F80346002B0CD041
:104D00007B689B6B184602F0B0FC0346202B04D155
:104D10007B6810225A64032352E07B681B685B693E
:104D200003F04003402B36D17B681B681433FB60D3
:104D3000FB6853E8003FBB60BB6823F04003FB66A1
:104D40007B681B681433FA6EBA617B617969BA6952
:104D500041E800233B613B69002BE5D17B68DB6BBD
:104D6000002B18D07B68DB6B00221A657B68DB6B3D
:104D7000184602F0B4F80346002B0CD07B68DB6BBE
:104D8000184602F072FC0346202B04D17B681022E7
:104D90005A64032314E07B680022DA847B680022D3
:104DA000DA857B6800225A647B68202283F84220DF
:104DB0007B68202283F841207B6800221A6300234D
:104DC00018468037BD4680BD80B58EB000AF786094
:104DD0007B681B680C333B623B6A53E8003FFB6116
:104DE000FB6923F0C0037B637B681B680C337A6B21
:104DF000FA62BB62B96AFA6A41E800237B627B6AA5
:104E0000002BE5D17B681B685B6903F08003802B76
:104E100036D17B681B681433FB60FB6853E8003FA6
:104E2000BB60BB6823F080033B637B681B68143363
:104E30003A6BBA617B617969BA6941E800233B61E9
:104E40003B69002BE5D17B689B6B002B18D07B68FE
:104E50009B6B00221A657B689B6B184602F03FF83B
:104E60000346002B0CD07B689B6B184602F0FDFBC1
:104E70000346202B04D17B6810225A64032307E0E9
:104E80007B680022DA847B68202283F8412000239B
:104E900018463837BD4680BD80B59AB000AF7860FF
:104EA0007B681B680C33BB64BB6C53E8003F7B64BE
:104EB0007B6C23F490737B667B681B680C337A6E83
:104EC0007A653B65396D7A6D41E80023FB64FB6CC4
:104ED000002BE5D17B681B6814337B637B6B53E845
:104EE000003F3B633B6B23F001033B667B681B6821
:104EF00014333A6E3A64FB63F96B3A6C41E8002371
:104F0000BB63BB6B002BE5D17B681B6B012B19D1FD
:104F10007B681B680C333B623B6A53E8003FFB61D4
:104F2000FB6923F01003FB657B681B680C33FA6D8B
:104F3000FA62BB62B96AFA6A41E800237B627B6A63
:104F4000002BE5D17B681B685B6903F04003402BB5
:104F500036D17B681B681433FB60FB6853E8003F65
:104F6000BB60BB6823F04003BB657B681B681433E0
:104F7000BA6DBA617B617969BA6941E800233B6126
:104F80003B69002BE5D17B68DB6B002B18D07B687D
:104F9000DB6B00221A657B68DB6B184601F09FFF14
:104FA0000346002B0CD07B68DB6B184602F05DFBE0
:104FB0000346202B04D17B6810225A6403230AE0A5
:104FC0007B680022DA857B68202283F842207B6898
:104FD00000221A63002318466837BD4680BD80B59D
:104FE000A2B000AF78600123C7F884307B681B68EB
:104FF0000C333B663B6E53E8003FFB65FB6D23F4CF
:10500000F073C7F880307B681B680C33D7F88020BA
:10501000FA66BB66B96EFA6E41E800237B667B6E6A
:10502000002BE3D17B681B681433FB64FB6C53E8F3
:10503000003FBB64BB6C23F00103FB677B681B680C
:105040001433FA6FBA657B65796DBA6D41E8002358
:105050003B653B6D002BE5D17B681B6B012B19D1A8
:105060007B681B680C33BB63BB6B53E8003F7B63FF
:105070007B6B23F01003BB677B681B680C33BA6F34
:105080007A643B64396C7A6C41E80023FB63FB6B08
:10509000002BE5D17B689B6B002B0FD07B681B68D6
:1050A0005B6903F08003802B04D17B689B6B544ABF
:1050B0001A6503E07B689B6B00221A657B68DB6BDB
:1050C000002B0FD07B681B685B6903F04003402B0B
:1050D00004D17B68DB6B4B4A1A6503E07B68DB6BB2
:1050E00000221A657B681B685B6903F08003802BD4
:1050F0002DD17B681B6814337B627B6A53E8003FC9
:105100003B623B6A23F080037B677B681B68143338
:105110007A6F3A63FB62F96A3A6B41E80023BB623B
:10512000BB6A002BE5D17B689B6B002B0FD07B68A3
:105130009B6B184601F043FF0346002B04D07B68AD
:105140009B6B00221A6502E00023C7F884307B685D
:105150001B685B6903F04003402B30D17B681B6800
:1051600014333B613B6953E8003FFB60FB6823F06D
:1051700040033B677B681B6814333A6FFA61BB617D
:10518000B969FA6941E800237B617B69002BE5D1AD
:105190007B68DB6B002B12D07B68DB6B184601F061
:1051A0000EFF0346002B07D07B68DB6B00221A65DD
:1051B0000123C7F8843002E00023C7F88430D7F811
:1051C0008430012B16D17B680022DA847B680022B0
:1051D000DA857B6800225A647B68202283F84120AC
:1051E0007B68202283F842207B6800221A6378685B
:1051F00000F00CFC002318468837BD4680BD00BF78
:1052000055630008B563000880B58EB000AF7860C4
:105210007B681B680C333B623B6A53E8003FFB61D1
:10522000FB6923F0C0037B637B681B680C337A6BDC
:10523000FA62BB62B96AFA6A41E800237B627B6A60
:10524000002BE5D17B681B685B6903F08003802B32
:105250003CD17B681B681433FB60FB6853E8003F5C
:10526000BB60BB6823F080033B637B681B6814331F
:105270003A6BBA617B617969BA6941E800233B61A5
:105280003B69002BE5D17B689B6B002B13D07B68BF
:105290009B6B164A1A657B689B6B184601F08FFE64
:1052A0000346002B1CD07B689B6B1B6D7A68926B4E
:1052B0001046984714E07B680022DA847B6820223D
:1052C00083F84120786800F0ABFB09E07B6800229E
:1052D000DA847B68202283F84120786800F0A0FB04
:1052E000002318463837BD4680BD00BF156400084E
:1052F00080B59AB000AF78607B681B680C33BB64E4
:10530000BB6C53E8003F7B647B6C23F490737B663B
:105310007B681B680C337A6E7A653B65396D7A6DF4
:1053200041E80023FB64FB6C002BE5D17B681B6824
:1053300014337B637B6B53E8003F3B633B6B23F091
:1053400001033B667B681B6814333A6E3A64FB6367
:10535000F96B3A6C41E80023BB63BB6B002BE5D1D2
:105360007B681B6B012B19D17B681B680C333B627C
:105370003B6A53E8003FFB61FB6923F01003FB65C8
:105380007B681B680C33FA6DFA62BB62B96AFA6A11
:1053900041E800237B627B6A002BE5D17B681B68B8
:1053A0005B6903F04003402B3FD17B681B681433DB
:1053B000FB60FB6853E8003FBB60BB6823F0400321
:1053C000BB657B681B681433BA6DBA617B61796910
:1053D000BA6941E800233B613B69002BE5D17B685A
:1053E000DB6B002B13D07B68DB6B194A1A657B687B
:1053F000DB6B184601F0E3FD0346002B22D07B68EF
:10540000DB6B1B6D7A68D26B104698471AE07B689D
:105410000022DA857B68202283F842207B68002204
:105420001A63786800F006FB0CE07B680022DA85DE
:105430007B68202283F842207B6800221A63786808
:1054400000F0F8FA002318466837BD4680BD00BF5B
:105450003F64000880B5BAB000AF78607B681B6815
:105460001B68C7F8E4307B681B68DB68C7F8E0306E
:105470007B681B685B69C7F8DC300023C7F8D8304D
:105480000023C7F8D430D7F8E43003F00F03C7F88F
:10549000D830D7F8D830002B0FD1D7F8E43003F04C
:1054A0002003002B09D0D7F8E03003F02003002BB5
:1054B00003D0786801F043F873E2D7F8D830002BB6
:1054C00000F0DE80D7F8DC3003F00103002B06D1BA
:1054D000D7F8E03003F49073002B00F0D180D7F8B8
:1054E000E43003F00103002B0BD0D7F8E03003F4D5
:1054F0008073002B05D07B685B6C43F001027B68F6
:105500005A64D7F8E43003F00403002B0BD0D7F82B
:10551000DC3003F00103002B05D07B685B6C43F0AB
:1055200002027B685A64D7F8E43003F00203002BD0
:105530000BD0D7F8DC3003F00103002B05D07B68DB
:105540005B6C43F004027B685A64D7F8E43003F0E4
:105550000803002B11D0D7F8E03003F02003002B14
:1055600005D1D7F8DC3003F00103002B05D07B68B0
:105570005B6C43F008027B685A647B685B6C002BB1
:1055800000F00A82D7F8E43003F02003002B08D0A3
:10559000D7F8E03003F02003002B02D0786800F049
:1055A000CEFF7B681B685B6903F04003402B0CBF98
:1055B00001230023DBB2C7F8D4307B685B6C03F0B7
:1055C0000803002B03D1D7F8D430002B4FD07868D4
:1055D00000F04CFE7B681B685B6903F04003402BC6
:1055E00041D17B681B681433C7F89C30D7F89C30D6
:1055F00053E8003FC7F89830D7F8983023F04003BD
:10560000C7F8D0307B681B681433D7F8D020C7F8B0
:10561000A820C7F8A430D7F8A410D7F8A82041E8EC
:105620000023C7F8A030D7F8A030002BD9D17B6871
:10563000DB6B002B13D07B68DB6B8A4A1A657B68B7
:10564000DB6B184601F0BBFC0346002B16D07B68D1
:10565000DB6B1B6D7A68D26B104698470EE078685A
:1056600000F0CAF90AE0786800F0C6F906E0786848
:1056700000F0C2F97B6800225A648DE100BF8BE123
:105680007B681B6B012B40F06781D7F8E43003F097
:105690001003002B00F06081D7F8E03003F0100316
:1056A000002B00F059810023BB607B681B681B68DE
:1056B000BB607B681B685B68BB60BB687B681B6802
:1056C0005B6903F04003402B40F0CE807B68DB6BCE
:1056D0001B685B68A7F8BE30B7F8BE30002B00F03F
:1056E000A9807B689B8DB7F8BE209A4280F0A2808B
:1056F0007B68B7F8BE20DA857B68DB6BDB69B3F5C6
:10570000807F00F088807B681B680C33C7F8883086
:10571000D7F8883053E8003FC7F88430D7F8843092
:1057200023F48073C7F8B8307B681B680C33D7F854
:10573000B820C7F89420C7F89030D7F89010D7F861
:10574000942041E80023C7F88C30D7F88C30002B28
:10575000D9D17B681B6814337B677B6F53E8003FAC
:105760003B673B6F23F00103C7F8B4307B681B68CD
:105770001433D7F8B420C7F88020FB67F96FD7F847
:10578000802041E80023BB67BB6F002BE1D17B6821
:105790001B6814333B663B6E53E8003FFB65FB6DB3
:1057A00023F04003C7F8B0307B681B681433D7F888
:1057B000B020FA66BB66B96EFA6E41E800237B66DC
:1057C0007B6E002BE3D17B68202283F842207B682C
:1057D00000221A637B681B680C33FB64FB6C53E884
:1057E000003FBB64BB6C23F01003C7F8AC307B6890
:1057F0001B680C33D7F8AC20BA657B65796DBA6D40
:1058000041E800233B653B6D002BE3D17B68DB6BFC
:10581000184601F064FB7B6802225A637B689A8D0C
:105820007B68DB8D9BB2D31A9BB21946786800F077
:105830000BF9B3E07B689B8DB7F8BE209A4240F02D
:10584000AD807B68DB6BDB69B3F5807F40F0A680C1
:105850007B6802225A637B689B8D1946786800F04A
:10586000F3F89BE0336300087B689A8D7B68DB8DDF
:105870009BB2D31AA7F8CE307B68DB8D9BB2002B8E
:1058800000F08E80B7F8CE30002B00F089807B6866
:105890001B680C33BB63BB6B53E8003F7B637B6BC4
:1058A00023F49073C7F8C8307B681B680C33D7F8B3
:1058B000C8207A643B64396C7A6C41E80023FB634E
:1058C000FB6B002BE3D17B681B6814337B627B6A24
:1058D00053E8003F3B623B6A23F00103C7F8C43042
:1058E0007B681B681433D7F8C4203A63FB62F96AFB
:1058F0003A6B41E80023BB62BB6A002BE3D17B68B3
:10590000202283F842207B6800221A637B681B6890
:105910000C333B613B6953E8003FFB60FB6823F0BD
:105920001003C7F8C0307B681B680C33D7F8C02061
:10593000FA61BB61B969FA6941E800237B617B695F
:10594000002BE3D17B6802225A63B7F8CE301946A8
:10595000786800F079F823E0D7F8E43003F08003AA
:10596000002B09D0D7F8E03003F08003002B03D0E0
:10597000786800F07CFD14E0D7F8E43003F04003D1
:10598000002B0ED0D7F8E03003F04003002B08D0F6
:10599000786800F0BCFD04E000BF02E000BF00E05A
:1059A00000BFE837BD4680BD80B483B000AF7860EB
:1059B00000BF0C37BD465DF8047B704780B483B0F0
:1059C00000AF786000BF0C37BD465DF8047B7047C0
:1059D00080B483B000AF786000BF0C37BD465DF87F
:1059E000047B704780B483B000AF786000BF0C3791
:1059F000BD465DF8047B704780B483B000AF78602B
:105A000000BF0C37BD465DF8047B704780B483B09F
:105A100000AF786000BF0C37BD465DF8047B70476F
:105A200080B483B000AF786000BF0C37BD465DF82E
:105A3000047B704780B483B000AF786000BF0C3740
:105A4000BD465DF8047B704780B483B000AF7860DA
:105A50000B467B8000BF0C37BD465DF8047B70476A
:105A600080B489B000AF78607B6893F84030012B38
:105A700001D102232AE07B68012283F840207B6861
:105A8000242283F841207B681B680C33FB60FB6891
:105A900053E8003FBB60BB6843F00103FB617B68D8
:105AA0001B680C33FA69BA617B617969BA6941E8AC
:105AB00000233B613B69002BE5D17B68202283F802
:105AC00041207B68002283F84020002318462437B9
:105AD000BD465DF8047B704780B489B000AF786044
:105AE0007B6893F84030012B01D102232DE07B68C5
:105AF000012283F840207B68242283F841207B68C0
:105B00001B680C33FB60FB6853E8003FBB60BB685D
